{
    "abi": [
        {
            "constant": true,
            "inputs": [
                {
                    "name": "a",
                    "type": "uint256"
                },
                {
                    "name": "b",
                    "type": "uint256"
                }
            ],
            "name": "add",
            "outputs": [
                {
                    "name": "",
                    "type": "uint256"
                }
            ],
            "payable": false,
            "stateMutability": "view",
            "type": "function"
        },
        {
            "payable": true,
            "stateMutability": "payable",
            "type": "fallback"
        }
    ],
    "bytecode": "608060405234801561001057600080fd5b5060c18061001f6000396000f300608060405260043610603e5763ffffffff7c0100000000000000000000000000000000000000000000000000000000600035041663771602f781146043575b600080fd5b348015604e57600080fd5b50605b600435602435606d565b60408051918252519081900360200190f35b6000607d838363ffffffff608616565b90505b92915050565b81810182811015608057600080fd00a165627a7a7230582007c36a0df66520ead794c9fde07d2ee8f31934fbb69a1e0ae190cbe3fa150bf00029",
    "compiler": {
        "optimize": true,
        "runs": 200,
        "version": "Version: 0.4.25+commit.59dbf8f1.Linux.g++"
    },
    "contractName": "Example",
    "opcodes": "PUSH1 0x80 PUSH1 0x40 MSTORE PUSH1 0x4 CALLDATASIZE LT PUSH1 0x3E JUMPI PUSH4 0xFFFFFFFF PUSH29 0x100000000000000000000000000000000000000000000000000000000 PUSH1 0x0 CALLDATALOAD DIV AND PUSH4 0x771602F7 DUP2 EQ PUSH1 0x43 JUMPI JUMPDEST PUSH1 0x0 DUP1 REVERT JUMPDEST CALLVALUE DUP1 ISZERO PUSH1 0x4E JUMPI PUSH1 0x0 DUP1 REVERT JUMPDEST POP PUSH1 0x5B PUSH1 0x4 CALLDATALOAD PUSH1 0x24 CALLDATALOAD PUSH1 0x6D JUMP JUMPDEST PUSH1 0x40 DUP1 MLOAD SWAP2 DUP3 MSTORE MLOAD SWAP1 DUP2 SWAP1 SUB PUSH1 0x20 ADD SWAP1 RETURN JUMPDEST PUSH1 0x0 PUSH1 0x7D DUP4 DUP4 PUSH4 0xFFFFFFFF PUSH1 0x86 AND JUMP JUMPDEST SWAP1 POP JUMPDEST SWAP3 SWAP2 POP POP JUMP JUMPDEST DUP2 DUP2 ADD DUP3 DUP2 LT ISZERO PUSH1 0x80 JUMPI PUSH1 0x0 DUP1 REVERT STOP LOG1 PUSH6 0x627A7A723058 KECCAK256 SMOD 0xc3 PUSH11 0xDF66520EAD794C9FDE07D 0x2e 0xe8 RETURN NOT CALLVALUE CREATE2 0xb6 SWAP11 0x1e EXP 0xe1 SWAP1 0xcb 0xe3 STATICCALL ISZERO SIGNEXTEND CREATE STOP 0x29 ",
    "sha1": "d3b2e089ad88339b62d87f71489a47168f48b373",
    "source": "pragma solidity ^0.4.24;\n\nimport \"./SafeMath.sol\";\n\ncontract Example {\n    using SafeMath for uint256;\n\n    function () public payable {\n        revert();\n    }\n\n    function add(uint256 a, uint256 b) public view returns (uint256) {\n        return a.add(b);\n    }\n} \n",
    "sourcePath": "contracts/example.sol",
    "type": "contract"
}