{
    "abi": [
        {
            "constant": true,
            "inputs": [
                {
                    "name": "a",
                    "type": "uint256"
                },
                {
                    "name": "b",
                    "type": "uint256"
                }
            ],
            "name": "add",
            "outputs": [
                {
                    "name": "",
                    "type": "uint256"
                }
            ],
            "payable": false,
            "stateMutability": "view",
            "type": "function"
        },
        {
            "payable": true,
            "stateMutability": "payable",
            "type": "fallback"
        }
    ],
    "bytecode": "608060405234801561001057600080fd5b5060c18061001f6000396000f300608060405260043610603e5763ffffffff7c0100000000000000000000000000000000000000000000000000000000600035041663771602f781146043575b600080fd5b348015604e57600080fd5b50605b600435602435606d565b60408051918252519081900360200190f35b6000607d838363ffffffff608616565b90505b92915050565b81810182811015608057600080fd00a165627a7a72305820b9ab63a3fb09476e1b6413700ff5008a11c4303ad3e146fa9eaa6feea738f8490029",
    "compiler": {
        "optimize": true,
        "runs": 200,
        "version": "Version: 0.4.25+commit.59dbf8f1.Linux.g++"
    },
    "contractName": "Token",
    "opcodes": "PUSH1 0x80 PUSH1 0x40 MSTORE PUSH1 0x4 CALLDATASIZE LT PUSH1 0x3E JUMPI PUSH4 0xFFFFFFFF PUSH29 0x100000000000000000000000000000000000000000000000000000000 PUSH1 0x0 CALLDATALOAD DIV AND PUSH4 0x771602F7 DUP2 EQ PUSH1 0x43 JUMPI JUMPDEST PUSH1 0x0 DUP1 REVERT JUMPDEST CALLVALUE DUP1 ISZERO PUSH1 0x4E JUMPI PUSH1 0x0 DUP1 REVERT JUMPDEST POP PUSH1 0x5B PUSH1 0x4 CALLDATALOAD PUSH1 0x24 CALLDATALOAD PUSH1 0x6D JUMP JUMPDEST PUSH1 0x40 DUP1 MLOAD SWAP2 DUP3 MSTORE MLOAD SWAP1 DUP2 SWAP1 SUB PUSH1 0x20 ADD SWAP1 RETURN JUMPDEST PUSH1 0x0 PUSH1 0x7D DUP4 DUP4 PUSH4 0xFFFFFFFF PUSH1 0x86 AND JUMP JUMPDEST SWAP1 POP JUMPDEST SWAP3 SWAP2 POP POP JUMP JUMPDEST DUP2 DUP2 ADD DUP3 DUP2 LT ISZERO PUSH1 0x80 JUMPI PUSH1 0x0 DUP1 REVERT STOP LOG1 PUSH6 0x627A7A723058 KECCAK256 0xb9 0xab PUSH4 0xA3FB0947 PUSH15 0x1B6413700FF5008A11C4303AD3E146 STATICCALL SWAP15 0xaa PUSH16 0xEEA738F8490029000000000000000000 ",
    "sha1": "21711030414cb074187f2a51ff224f26a20d74a8",
    "source": "pragma solidity ^0.4.24;\n\n\nimport \"./SafeMath.sol\";\n\ncontract Token {\n    using SafeMath for uint256;\n\n    function () public payable {\n        revert();\n    }\n\n    function add(uint256 a, uint256 b) public view returns (uint256) {\n        return a.add(b);\n    }\n} \n",
    "sourcePath": "contracts/example.sol",
    "type": "contract"
}